{
	"abi": [
		{
			"anonymous": false,
			"inputs": [
				{
					"indexed": false,
					"internalType": "bytes32",
					"name": "docId",
					"type": "bytes32"
				}
			],
			"name": "issued",
			"type": "event"
		},
		{
			"inputs": [
				{
					"internalType": "uint256",
					"name": "_id",
					"type": "uint256"
				},
				{
					"internalType": "string",
					"name": "_sName",
					"type": "string"
				},
				{
					"internalType": "string",
					"name": "_issueDate",
					"type": "string"
				},
				{
					"internalType": "address",
					"name": "_issuer",
					"type": "address"
				},
				{
					"internalType": "address",
					"name": "_student",
					"type": "address"
				}
			],
			"name": "issueCred",
			"outputs": [
				{
					"internalType": "bytes32",
					"name": "",
					"type": "bytes32"
				}
			],
			"stateMutability": "nonpayable",
			"type": "function"
		},
		{
			"inputs": [
				{
					"internalType": "bytes32",
					"name": "_docId",
					"type": "bytes32"
				}
			],
			"name": "verifyCred",
			"outputs": [
				{
					"internalType": "bool",
					"name": "",
					"type": "bool"
				}
			],
			"stateMutability": "view",
			"type": "function",
			"constant": true
		}
	],
	"bytecode": "0x608060405234801561001057600080fd5b506107e8806100206000396000f3fe608060405234801561001057600080fd5b50600436106100365760003560e01c8063333930951461003b578063e49239c11461006b575b600080fd5b610055600480360381019061005091906103ce565b61009b565b6040516100629190610561565b60405180910390f35b610085600480360381019061008091906103f7565b6100d4565b604051610092919061057c565b60405180910390f35b60008082905060008060008581526020019081526020016000206000015411156100c95760019150506100cf565b60009150505b919050565b600080868686866040516020016100ee949392919061051b565b6040516020818303038152906040528051906020012090506040518060a001604052808881526020018781526020018681526020018573ffffffffffffffffffffffffffffffffffffffff1681526020018473ffffffffffffffffffffffffffffffffffffffff16815250600080838152602001908152602001600020600082015181600001556020820151816001019080519060200190610191929190610284565b5060408201518160020190805190602001906101ae929190610284565b5060608201518160030160006101000a81548173ffffffffffffffffffffffffffffffffffffffff021916908373ffffffffffffffffffffffffffffffffffffffff16021790555060808201518160040160006101000a81548173ffffffffffffffffffffffffffffffffffffffff021916908373ffffffffffffffffffffffffffffffffffffffff1602179055509050507fc59a138bd48d2ce1d2d0f1ac3304ed8e7e074ec6a875071c5f97b3c19b53e5108160405161026f919061057c565b60405180910390a18091505095945050505050565b828054610290906106a2565b90600052602060002090601f0160209004810192826102b257600085556102f9565b82601f106102cb57805160ff19168380011785556102f9565b828001600101855582156102f9579182015b828111156102f85782518255916020019190600101906102dd565b5b509050610306919061030a565b5090565b5b8082111561032357600081600090555060010161030b565b5090565b600061033a610335846105c8565b610597565b90508281526020810184848401111561035257600080fd5b61035d848285610660565b509392505050565b6000813590506103748161076d565b92915050565b60008135905061038981610784565b92915050565b600082601f8301126103a057600080fd5b81356103b0848260208601610327565b91505092915050565b6000813590506103c88161079b565b92915050565b6000602082840312156103e057600080fd5b60006103ee8482850161037a565b91505092915050565b600080600080600060a0868803121561040f57600080fd5b600061041d888289016103b9565b955050602086013567ffffffffffffffff81111561043a57600080fd5b6104468882890161038f565b945050604086013567ffffffffffffffff81111561046357600080fd5b61046f8882890161038f565b935050606061048088828901610365565b925050608061049188828901610365565b9150509295509295909350565b6104af6104aa8261060e565b6106d4565b82525050565b6104be81610620565b82525050565b6104cd8161062c565b82525050565b60006104de826105f8565b6104e88185610603565b93506104f881856020860161066f565b80840191505092915050565b61051561051082610656565b6106f8565b82525050565b60006105278287610504565b60208201915061053782866104d3565b915061054382856104d3565b915061054f828461049e565b60148201915081905095945050505050565b600060208201905061057660008301846104b5565b92915050565b600060208201905061059160008301846104c4565b92915050565b6000604051905081810181811067ffffffffffffffff821117156105be576105bd610731565b5b8060405250919050565b600067ffffffffffffffff8211156105e3576105e2610731565b5b601f19601f8301169050602081019050919050565b600081519050919050565b600081905092915050565b600061061982610636565b9050919050565b60008115159050919050565b6000819050919050565b600073ffffffffffffffffffffffffffffffffffffffff82169050919050565b6000819050919050565b82818337600083830152505050565b60005b8381101561068d578082015181840152602081019050610672565b8381111561069c576000848401525b50505050565b600060028204905060018216806106ba57607f821691505b602082108114156106ce576106cd610702565b5b50919050565b60006106df826106e6565b9050919050565b60006106f182610760565b9050919050565b6000819050919050565b7f4e487b7100000000000000000000000000000000000000000000000000000000600052602260045260246000fd5b7f4e487b7100000000000000000000000000000000000000000000000000000000600052604160045260246000fd5b60008160601b9050919050565b6107768161060e565b811461078157600080fd5b50565b61078d8161062c565b811461079857600080fd5b50565b6107a481610656565b81146107af57600080fd5b5056fea2646970667358221220b08ad4a33c46080055f17b6e4efe095ea1910fad8a122598a47ffb94b5200f3364736f6c63430008000033",
	"immutableReferences": {},
	"source": "//SPDX-License-Identifier: Unlicensed\r\npragma solidity >=0.4.22 <0.9.0;\r\n\r\ncontract myContract{\r\n\r\n    struct document{\r\n        uint256 id;\r\n        string sName;\r\n        string issueDate;\r\n        address Issuer;\r\n        address Student;\r\n    }\r\n\r\n    mapping(bytes32 => document) documents;\r\n    event issued(bytes32 docId);\r\n\r\n    function issueCred(uint256 _id, string memory _sName, string memory _issueDate, \r\n                        address _issuer, address _student)\r\n    public returns (bytes32)\r\n    {\r\n        bytes32 docId = keccak256(abi.encodePacked(_id, _sName, _issueDate, _issuer));\r\n        documents[docId] = document(_id, _sName, _issueDate, _issuer, _student);\r\n        emit issued(docId);\r\n        return docId;\r\n    }\r\n\r\n   \r\n\r\n     function verifyCred(bytes32 _docId) public view returns (bool){\r\n        bytes32 original = _docId;\r\n        // require(documents[_docId].id!=0, \"Credential does not exist\");\r\n        if(documents[_docId].id > 0)\r\n        return true;\r\n        else return false;\r\n        // return documents[_docId].length > 0;\r\n    }\r\n\r\n}",
	"sourcePath": "D:\\blackDocs\\clientSide\\code_blocks\\contracts\\myContract.sol",
	"compiler": {
		"name": "solc",
		"version": "0.8.0+commit.c7dfd78e.Emscripten.clang"
	},
	"schemaVersion": "3.4.13",
	"updatedAt": "2023-04-27T18:38:40.382Z",
	"networkType": "ethereum",
	"devdoc": {
		"kind": "dev",
		"methods": {},
		"version": 1
	},
	"userdoc": {
		"kind": "user",
		"methods": {},
		"version": 1
	}
}